:020000040800F2
:10000000100D0020890100080B0F0008070F0008E1
:10001000090F00088F0200086511000800000000A9
:100020000000000000000000000000000F0F0008AA
:1000300091020008000000000D0F0008110F0008D9
:10004000A3010008A3010008A3010008A301000800
:10005000A3010008A3010008A3010008A3010008F0
:10006000A3010008A3010008A3010008A3010008E0
:10007000A3010008A3010008A3010008A3010008D0
:10008000A3010008A3010008A3010008A3010008C0
:10009000A3010008A3010008A3010008A3010008B0
:1000A000A3010008A3010008A3010008A3010008A0
:1000B000A3010008A3010008A3010008A301000890
:1000C000A3010008A3010008A3010008A301000880
:1000D000A301000859110008A3010008A3010008AA
:1000E000A3010008A3010008A301000800F002F822
:1000F00000F03AF80AA090E8000C82448344AAF188
:100100000107DA4501D100F02FF8AFF2090EBAE885
:100110000F0013F0010F18BFFB1A43F0010318473B
:1001200088170000A8170000103A24BF78C878C1CB
:10013000FAD8520724BF30C830C144BF04680C60ED
:10014000704700000023002400250026103A28BF35
:1001500078C1FBD8520728BF30C148BF0B60704739
:100160001FB51FBD10B510BD00F058F81146FFF7C0
:10017000F7FF01F01DF800F076F803B4FFF7F2FF87
:1001800003BC00F07DF8000009488047094800479B
:10019000FEE7FEE7FEE7FEE7FEE7FEE7FEE7FEE737
:1001A000FEE7FEE704480549054A064B7047000094
:1001B000710F0008ED00000810070020100D00204E
:1001C00010090020100900204FF0000200B513466E
:1001D00094469646203922BFA0E80C50A0E80C5067
:1001E000B1F12001BFF4F7AF090728BFA0E80C5018
:1001F00048BF0CC05DF804EB890028BF40F8042B11
:1002000008BF704748BF20F8022B11F0804F18BF7D
:1002100000F8012B7047704770477047754600F033
:100220002BF8AE4605006946534620F00700854688
:1002300018B020B5FFF7B6FFBDE820404FF000062C
:100240004FF000074FF000084FF0000B21F00701BE
:10025000AC46ACE8C009ACE8C009ACE8C009ACE801
:10026000C0098D46704710B50446AFF300802046A4
:10027000BDE81040FFF781BF00487047AC06002082
:1002800001491820ABBEFEE7260002007047FEE7DA
:10029000704710B590F821100022022905D00421E2
:1002A000816380F82020012010BD01680B6823F0D5
:1002B0000E030B6001680B6823F001030B6090F8DC
:1002C0004030C46B012101FA03F3636080F8211010
:1002D00080F82020104610BD10B590F821100024A1
:1002E000022903D00421816301243DE001680A68EA
:1002F00022F00E020A6001680A6822F001020A6018
:100300001A4A0168914201D1012121E0174A1432B1
:10031000914201D110211BE0144A2832914201D1AF
:10032000891515E0114A3C32914201D189140FE040
:100330000E4A5032914202D14FF4803108E00B4A0C
:100340006432914202D14FF4801101E04FF080718C
:10035000064A083A5160012180F82110002180F8F6
:100360002010416B01B18847204610BD08000240B3
:100370002DE9F84FDFF8B891002409F1040A0AF1D9
:10038000040B23460F270BF1040EC9E00125A540FD
:100390002A40AA427DD1674ED1F804C0ACEB0608D2
:1003A000B44532D014DCBCF1030F3AD009DCBCF107
:1003B000000F2AD0BCF1010F1CD0BCF1020F31D1CB
:1003C0001DE0BCF1110F17D0BCF1120F2AD119E0BA
:1003D000B8F5881F19D006DCB8F5803F15D0B8F500
:1003E000801F1FD111E0B8F5001F0ED0B8F5041F13
:1003F00018D10AE0CB6815E0CB681B1D12E0CB6872
:1004000008330FE0CB680C330CE08B682BB1012B69
:100410004FF0080303D0456104E0042302E00561C6
:1004200000E00023FF2A01D8064601E000F104069F
:100430004FEA840501D9A5F12005D6F8008007FA16
:1004400005FC28EA0C0803FA05F548EA0508C6F891
:1004500000804D68ED0062D5374DAE6946F001066B
:10046000AE61AD6924F0030605F001050095334D3A
:1004700006EB050CDCF80850A607360F07FA06F85D
:1004800025EA0805DFF8B880404503D14FF00008A1
:1004900017E044E0DFF8AC80404502D14FF001089E
:1004A0000FE0DFF8A480404502D14FF0020808E0D9
:1004B000DFF89880404502D14FF0030801E04FF08B
:1004C000040808FA06F848EA0508CCF808804D68E0
:1004D000D9F80060ED034D4601D5164300E0964380
:1004E0002E604D68DAF80060AD03554601D516431D
:1004F00000E096432E604D68DBF80060ED025D463B
:1005000001D5164300E096432E604D68DEF800608A
:10051000AD02754601D5164300E096432E60641C7B
:100520000D682A46E5407FF431AFBDE8F88F000042
:1005300000040140000011100010024000000140C2
:1005400000080140000C014000100140001401406F
:100550000AB1016170470904FBE7000001488068A7
:1005600070470000040000200248816802781144AE
:100570008160704704000020074810B5016841F011
:1005800010010160032000F075F80F2000F006F85C
:1005900000F024F8002010BD0020024070B50D4D81
:1005A00004464FF47A712878B1FBF0F00A490968E3
:1005B000B1FBF0F000F0ECFA48B9102C07D20022A1
:1005C0002146501E00F036F800206C6070BD0120FE
:1005D00070BD000004000020100000200C4808B589
:1005E000816941F001018161816901F0010100919E
:1005F000C16941F08051C161C06900F08050009034
:100600000448416821F0E06141F00071416008BD9B
:100610000010024000000140002809DB00F01F022A
:10062000012191404009800000F1E020C0F8001154
:1006300070470000F0B40E4B1B680C46C3F3022356
:10064000C3F10705042D00D90425191D072901D27E
:10065000002300E0DB1E012606FA05F1491E2140B9
:1006600099409E40761E16403143F0BC00F07BBDA1
:100670000CED00E0064900F0070208684FF6FF03A2
:10068000184040EA0220034A104308607047000007
:100690000CED00E00000FA052DE9F0470F460500DB
:1006A00061D0434E306800F00700B84209D230688C
:1006B00020F0070038433060306800F00700B8428F
:1006C00051D128683B4C810712D5400703D560689B
:1006D00040F4E06060602878000703D5606840F46B
:1006E000605060606068A96820F0F00008436060B6
:1006F0002878C00728D06868012810D0216802280F
:1007000010D0890700292EDA616821F00301014326
:100710006160FFF723FF804641F288390DE02168D0
:100720008903EFE78901EDE7FFF718FFA0EB080168
:10073000494502D90320BDE8F0876068696800F088
:100740000C00B0EB810FEFD1306800F00700B84229
:100750000BD9306820F0070038433060306800F073
:100760000700B84201D00120E5E72878400705D509
:100770006068E96820F4E06008436060287800075A
:1007800006D56068296920F4605040EAC1006060C5
:1007900000F038F86168084AC1F30311515CC840A1
:1007A0000649086006480068FFF7F8FE0020C2E727
:1007B00000200240001002409018000810000020A5
:1007C000080000200448054900684968044AC1F34C
:1007D0000221515CC8407047100000200010024008
:1007E000A01800080448054900684968044AC1F394
:1007F000C221515CC8407047100000200010024028
:10080000A018000812A185B00FC98DE80F0014A030
:10081000144A006804905168134801F00C03042B3B
:1008200010D0082B0ED1C1F38343C9031DF8030078
:100830000AD5516804AAC1F34041515C0A4A5043A9
:10084000B0FBF1F005B0704708494843FAE70000F3
:1008500002030405060708090A0B0C0D0E0F101001
:10086000010200000010024000127A0000093D0061
:100870002DE9F84F040070D02078C04DC00749D052
:100880006868C0F38100012807D06868C0F3810060
:10089000022809D16868C00306D52868800339D5C5
:1008A00060680028E7D035E06068B0F5803F0BD085
:1008B00010B1B0F5A02F11D0286820F48030286046
:1008C000286820F4802002E0286840F48030286006
:1008D000606890B1FFF742FE06460AE0286840F4DF
:1008E00080202860F0E700BFFFF738FE801B6428F7
:1008F00073D828688003F7D50CE0FFF72FFE064673
:1009000005E000BFFFF72AFE801B6428F0D82868A6
:100910008003F7D420789A4E80074FF001094FF0FA
:10092000000839D5686810F00C0F07D06868C0F36C
:100930008100022809D16868C00306D428688007AE
:1009400014D52069012808D110E02069B0B1C6F89B
:100950000090FFF703FE074605E00AE1FFF7FEFD02
:10096000C01B0228C4D828688007F7D528686169A9
:1009700020F0F80040EAC10028600DE0C6F80080D1
:10098000FFF7ECFD074604E0FFF7E8FDC01B022877
:1009900023D828688007F7D4207800072CD5794819
:1009A000A169D9B1C0F80090FFF7D8FD074604E06F
:1009B000FFF7D4FDC01B02280FD8686A8007F7D55F
:1009C00071484FF4FA510068B0FBF1F0009000BF9D
:1009D0000098411E0091FAD20EE080E0C0F800803D
:1009E000FFF7BCFD074604E0FFF7B8FDC01B022877
:1009F00075D8686A8007F7D42078400760D5E86921
:100A00000027C00008D4E86940F08050E861E86938
:100A1000012700F0805000905C480168C90513D49C
:100A20000168834641F480710160FFF797FD8246BB
:100A300006E000BFFFF792FDA0EB0A0064284ED845
:100A4000DBF80000C005F5D5E06801280AD008B140
:100A5000052813D0286A20F001002862286A20F0B7
:100A6000040002E0286A40F001002862E06841F2D8
:100A7000883B98B1FFF772FD82460BE0286A40F090
:100A800004002862EEE700BFFFF768FDA0EB0A0153
:100A900059455AD8286A8007F6D50CE0FFF75EFD65
:100AA000824605E0FFF75AFDA0EB0A0159454CD8F4
:100AB000286A8007F6D41FB1E86920F08050E86109
:100AC000E06988B36968C1F38101022944D0022832
:100AD000C6F8608004D0FFF741FD044638E034E0FA
:100AE000FFF73CFD074604E0FFF738FDC01B022876
:100AF0002BD828688001F7D4206AB0F5803F05D153
:100B00006868A16820F4003008436860D4E90801EF
:100B10000843696821F4741108436860C6F860905E
:100B2000FFF71CFD044606E025E000BFFFF716FDB9
:100B3000001B022809D828688001F7D51BE000BFF8
:100B4000FFF70CFD001B022802D90320BDE8F88F37
:100B500028688001F4D40EE00128F7D06868226A82
:100B600000F48031914204D1616A00F4701088422F
:100B700001D00120EAE70020E8E700000010024071
:100B800000004242800442421000002000700040F9
:100B900010B5401EB0F1807F01D3012010BD4FF091
:100BA000E02460610F21601700F0DDFA0020A061F1
:100BB00007202061002010BD70477047F8B502681B
:100BC00004461068D168536910F00F0F4FF000050C
:100BD00053D003F0010601F4907737435FD0C2078A
:100BE00005D0CA0503D5226C42F0010222644207F7
:100BF00005D5DA0703D0226C42F002022264820794
:100C000005D5DA0703D0226C42F004022264020701
:100C100007D501F02002324303D0226C42F00802D3
:100C20002264226C002A34D0800604D5880602D5BE
:100C3000204600F0BEF920684069216CC0F38010A6
:100C4000090700D430B3204600F09BF920684169C1
:100C500049061BD5416921F040014161A06BA8B153
:100C600058494163A06BFFF737FB002811D0A06BF8
:100C7000416B01B0BDE8F040084783060FD58B06F5
:100C80000DD52046BDE8F84000F093B92046FFF7A7
:100C900094FFF8BD2046FFF790FF2564F8BD266B52
:100CA0002023012E52D1C60650D5CE064ED510684F
:100CB00050680090506940062AD5A16B08684068CA
:100CC0000004000CEAD0A68D8642E7D9E085886949
:100CD000202818D0D06820F48070D0602068416946
:100CE00021F0010141612068416921F04001416129
:100CF00084F83E3025632068C16821F01001C1608E
:100D0000A06BFFF7C6FAA08DE18D401A81B219E001
:100D1000A08DE18D401A81B2E08D0028BED000295F
:100D2000BCD0D06820F49070D0602068426922F076
:100D30000102426184F83E3025632068C26822F0D7
:100D40001002C2602046FFF737FFF8BD05062BD51D
:100D50000D0629D594F83D002128F6D1A068B0F5FC
:100D6000805F01D12069B0B1206A411C21622168F5
:100D700000784860E08C401E0004000CE084E4D160
:100D80002068C16821F08001C1602068C16841F01D
:100D90004001C160F8BD206A0088C0F308005060BF
:100DA000206A801C2062E5E74006F3D54806F1D5AD
:100DB000D168204621F04001D16084F83D3000F038
:100DC000A1F8F8BD730F000870B5040004D094F8C2
:100DD0003D00002510B106E0012070BD84F83C50B4
:100DE000204600F023F8242084F83D002068C168E4
:100DF00021F40051C160204600F036F920680169F5
:100E000021F4904101612068416921F02A0141618A
:100E10002068C16841F40051C1602564202084F835
:100E20003D0084F83E00002070BD000030B585B064
:100E300000240094019402940394006818498842A5
:100E40002CD11848816941F480418161816901F4A4
:100E500080410491816941F0040181618069124DF2
:100E600000F0040004904FF4007000900220019004
:100E70000320039069462846FFF77AFA2815CDE942
:100E80000004694628460294FFF772FA0022012105
:100E90002520FFF7CFFB2520FFF7BEFB05B030BDB7
:100EA00000380140001002400008014090F83E3038
:100EB000202B0ED159B152B190F83C30012B08D003
:100EC000012380F83C300023036300F029B901209E
:100ED000704702207047000010B508490068096893
:100EE00088420AD10648007800F0F2FABDE81040C6
:100EF000012203490148FFF7D9BF10BD18000020A7
:100F0000000000207047FEE7FEE7FEE770477047ED
:100F1000FFF72ABB30B58FB028216846FFF754F998
:100F200014210AA8FFF750F902250120049000952A
:100F30001020059000244FF46010CDE9084007957B
:100F40006846FFF795FC08B172B6FEE70F20CDE9C1
:100F50000A054FF48060CDE90C4002210AA80E94E6
:100F6000FFF79AFB002801D072B6FEE70FB030BD44
:100F7000704710B5406A0021C185C184FFF71DFE8E
:100F800010BD0168CA6822F49072CA6001684A699B
:100F900022F001024A61016B012904D10168CA688B
:100FA00022F01002CA60202180F83E100021016367
:100FB000704708B590F83E10222901D0022008BDE4
:100FC00082684FF480539A4201D1016921B1816A4C
:100FD0009A421BD04AB10AE00268816A5268C2F3A1
:100FE00008020A80816A891C08E0026972B10268FD
:100FF000526802F07F020A70816A491C8162C18DC9
:10100000491E0904090CC18503D019E00268526821
:10101000F1E70168CA6822F02002CA600168CA6864
:1010200022F48072CA6001684A6922F001024A61B2
:10103000202180F83E10016B012903D0FFF74CFFFF
:10104000002008BD002101630168CA6822F0100277
:10105000CA6001680A68D20602D50A684968009128
:10106000818DFFF7A9FDEBE770B5044600680169C3
:10107000E26821F44051114301612169A0680843ED
:10108000616908432168CA6841F20C639A430243CC
:10109000CA6020684169A26921F44071114341612D
:1010A0001E492068884202D1FFF79CFB01E0FFF750
:1010B00089FB00EBC00101EB001260686421800035
:1010C000B2FBF0F3B3FBF1F36FF018067343B2FB1E
:1010D000F0F5B2FBF0F605EB8305322303EB0515C3
:1010E000B5FBF1F5B6FBF1F605F0F00505EB0615DD
:1010F000B2FBF0F6B2FBF0F0B0FBF1F06FF01802CB
:10110000504306EB800003EB0010B0FBF1F02168C8
:1011100000F00F002844886070BD000000380140D6
:1011200081628285C28500210164222280F83E20EE
:1011300080F83C100168CA6842F48072CA60016895
:101140004A6942F001024A610068C16841F0200129
:10115000C1600020704700000148FFF72FBD00006C
:1011600018000020FEE70907090E002804DB00F143
:10117000E02080F80014704700F00F0000F1E0203C
:1011800080F8141D7047000010B50268074C4A40F3
:1011900000210260134602F001025242224082EA1C
:1011A0005302491C02600829F4D310BD2083B8ED16
:1011B00086B0FFF7E1F9FFF7ADFE00242A4800945E
:1011C000019402940394816941F010018161816965
:1011D00001F010010491816941F00401816180698D
:1011E000224E00F004004FF40055049000222946DE
:1011F0003046FFF7ADF901200095CDE9010402204A
:10120000039069463046FFF7B3F81A481849016061
:101210004FF41651C0E901140C21C460C0E9044127
:101220008461C461FFF7D0FD08B172B6FEE700F03B
:101230009DFA012210490F48FFF738FE0D480021A2
:10124000443000F023F8002400F08AFA20B100F0C6
:1012500095FA8DF80000012406482246694644307C
:1012600000F02AF8EFE700000010024000100140F3
:101270000038014018000020000000200A784FF4D8
:1012800000510148FFF764B900100140002280F8C6
:10129000F82180F8F92180F80012C0F8D020C0F8B9
:1012A000D420C0F8CC20C0F8D820A0F8DE2080F8E8
:1012B000E32000F021BA00002DE9F04716460F4662
:1012C0000446002504E0795D204600F03DF96D1CE0
:1012D000B542F8D300F082F83F494FF47A730860C2
:1012E000D4F8C420821A9A4201D2012200E00022DE
:1012F000D4F8C8508A46411B994201D2012100E02E
:101300000021894694F8E73094F8E6105B1AD9B2C8
:10131000102921D294F8E2508D421DD994F8E400AE
:10132000084400F00F0000EB400004EB800594F847
:10133000000200F060F8A9790B3188423BD394F8A1
:10134000E70028722946204600F0F2F994F8E700F9
:10135000401C84F8E7002EE069B362B394F8E420FF
:10136000DFB202EB420104EB81052968461A002135
:101370000FE000BF02EB420C54F82C30C31AB3420A
:1013800002D91E4604EB8C05521C491C02F00F02C8
:10139000C9B2B942EED32968401A32280BD394F867
:1013A000000200F028F8A9790B31884203D32946BE
:1013B000204600F0BDF9D4F8C010DAF80000401A59
:1013C000192807D9B9F1000F04D02046BDE8F0472D
:1013D00000F054B9BDE8F08714000020FFF7BEB854
:1013E00003480160001F01684906FCD570470000F2
:1013F0000438014070474FF4007070477047000098
:101400002DE9F0470446DDE909950220089E84F89D
:10141000FF01C01EC4F8F40194F8000298469246F9
:101420000F4604F5FA74FFF7E9FF207BAA21FFF7C6
:10143000D7FF207BAA21FFF7D3FF207BAA21A4F5A9
:10144000FA74FFF7CDFF01223946204600F032F949
:10145000380604D501225146204600F02BF901221E
:101460002946204600F026F90CE000BF18F80610C7
:101470000122204600F01EF9761CB6B26D1E06EA67
:101480000906EDB2002DF1D1D4F8F4010022C543D4
:10149000290E204600F00EF90022C5F30741204630
:1014A00000F008F90022C5F30721204600F002F9F8
:1014B000E9B20022204600F0FDF894F80002552120
:1014C000FFF78EFF94F80002BDE8F047FFF792BFE8
:1014D0000146014800F024B8A00200208188C0889D
:1014E000814201D001207047002070470160002137
:1014F0008180C1800281704710B58288C3889A427A
:1015000002D14FF0FF3010BD5A1C048992B29442B0
:1015100000D800220468E35C0B70C280002010BD7C
:1015200010B5838804895A1C92B2944200D80022D4
:10153000C488944202D14FF0FF3010BD0468E154DA
:101540008280002010BD00002DE9F041044690F893
:10155000F80100260D46022814D0AA2D1BD084F8CD
:10156000F86100BF94F8F91103274FF0050804F55E
:10157000F8720A297ED2DFE801F02712293040559F
:101580005A626C7884F8F861AA2D02D055291BD0D4
:1015900070E001205AE0401C84F8F801E2E784F88A
:1015A000FB5184F8FA614FF0FF30C4F8F00129468E
:1015B0001046FFF7E9FD280601D5022046E084F831
:1015C000FC6100BF84F8F971BDE8F08184F8FC513A
:1015D00029461046FFF7D8FDF4E784F8FD5184F85A
:1015E000FE5129461046FFF7CFFD94F8FD0108B1E2
:1015F00004202BE084F8F981E6E794F8FA0104F17D
:10160000EC03411C84F8FA11C55429461046FFF733
:10161000BBFD94F8FD01401E10F0FF0084F8FD01B1
:10162000E8D0D1E72806C4F8EC0106200EE0D4F893
:10163000EC0140EA0540C4F8EC01072006E0D4F8CC
:10164000EC0140EA0520C4F8EC01082084F8F90117
:10165000BAE7D4F8EC012843C4F8EC01D4F8F0114F
:10166000C943884206D10920F0E7552D02D1204612
:1016700000F08EF884F8F961A6E700003EB5044654
:1016800090F80002FFF7B7FE0B280FD30122FF21CD
:1016900000208DE8070094F8E82004F1E8032046D4
:1016A000FFF7AEFE02480068C4F8C0003EBD00006F
:1016B0001400002070B5044616460D4690F800024E
:1016C000FFF78EFE26B1294604F5FA70FFF75CFDA0
:1016D0000226AA2D0CD194F8FF01401E10F0FF0045
:1016E00084F8FF0106D194F800025521FFF778FE37
:1016F00084F8FF6170BD0000002180F8E21080F8DE
:10170000E41080F8E510A0F8DC10A0F8E01080F8F4
:10171000E710064A80F8E61080F8E8101268C0F872
:10172000C420C0F8C020C0F8C810704714000020C2
:101730003EB50C468B79898840F2FF328DE80E0069
:10174000E179227A41F08001034BFFF759FE03480B
:10175000006820603EBD0000AC02002014000020A4
:101760000148FFF7BBBE0000A00200200249402252
:1017700001F14000FFF7BABE6002002008B56946DB
:101780000248FFF7B9FE9DF8000008BDA002002046
:101790002DE9F0413D4990F8FB51044600F1EC067B
:1017A00090F8FE7190F8FC010968C4F8C410FE2D91
:1017B0005DD0FF2D17D02A060BD5C4F8C81094F8B9
:1017C000E81081425DD1491C84F8E8102046FFF7FB
:1017D00055FF94F8003205F03F003A463146BDE827
:1017E000F041FFF74BBD337894F8E6101B1ADDB2D9
:1017F000421A94F8E730D2B2591AC9B28A4233D8A1
:1018000084F8E600002019E094F8E41001EB4101AF
:1018100004EB810394F8E210491E84F8E21094F876
:10182000E410491C01F00F0184F8E410B4F8DC1056
:101830009B79C91A401CA4F8DC10C0B29042E3D3D3
:1018400094F8E46000270BE006EB460004EB80010F
:101850002046FFF76DFF761C7F1C06F00F06FFB2D7
:10186000AF42F1D3BDE8F08154F8D00F0BE0D4F8CB
:10187000D800401CC4F8D8002046BDE8F041FFF76E
:101880003BBF54F8D40F401C2060EBE7140000204D
:101890000000000000000000010203040607080920
:1018A0000000000001020304C81800080000002026
:1018B0001800000028010008E018000818000020A7
:1018C000F80C0000440100080000000001000000C6
:1018D00010000000000000000024F40000000000E0
:04000005080000ED02
:00000001FF
